:02000000D42901
:0A0006000330EE07EE0CEE0C7F3025
:10001000EE050000EE0B09280800E30A3F30E30577
:10002000831320308400630884076C088000080074
:10003000831203136108623A031922286108423AC5
:10004000031D3B2862084C3A03192A2862086C3ABF
:10005000031D2D28FF30E500080030306202031C2C
:1000600008006208393C031C08000F306205E900F3
:10007000690EF039E5006108673A03194328610801
:10008000473A031D5C2862084C3A03194B28620862
:100090006C3A031D4E28FF30E60008003030620243
:1000A000031C08006208393C031C08000F3062057D
:1000B000E900690EF039E6006108733A0319642813
:1000C0006108533A031D7D2862084C3A03196C28D5
:1000D00062086C3A031D6F28FF30E70008003030DB
:1000E0006202031C08006208393C031C08000F3040
:1000F0006205E900690EF039E70061083F3A031D27
:1001000008003F30EC000D20E50803198B28313042
:10011000EC000D208E283030EC000D20E60803198D
:1001200095283130EC000D2098283030EC000D205F
:10013000E70803199F283130EC000D20A228303049
:10014000EC000D200A30EC000D2008008312031390
:1001500064086306031908008316981C08008312BC
:10016000E40A3F30E40583132030840064088407E8
:100170000008990008006008023A031DC9286808B1
:100180000A3A0319C62868080D3A03191820E00135
:100190000800213068020318CF28E0010800E008B9
:1001A000031DD7286808E1000130E0000800600363
:1001B000031D08006808E2000230E0000800831216
:1001C0000313E9013F30690203184429831683139E
:1001D000A030840083126908840700308000013059
:1001E000EC00ED0120306C026D080318F9280319AA
:1001F000FB28ED1F3029FF30EA00EB00851C0B299E
:100200006400EA080319EB03EA03031DFE28EB0868
:10021000031DFE2808000A30EE00032005181929E6
:1002200083168313A03084008312690884076C0846
:100230008004FF30EA00EB00851829296400EA08F1
:100240000319EB03EA03031D1C29EB08031D1C29FA
:1002500008000A30EE0003200310EC0DED0DF2282B
:1002600083168313A03084008312690884078008F2
:100270000319442983168313A0308400831269086C
:1002800084078016E90AE2284830EC000D20E801D6
:10029000690868020318582983168313A030840064
:1002A0008312680884070008EC000D20E80A48293A
:1002B0000A30EC000D2008000F3083160313810074
:1002C0008312850107309F00B330831685008312A7
:1002D00085018316061083128601051505178316FE
:1002E0008614061519309900181518121813981647
:1002F0008312981098171816E001013090000B3007
:100300008F00DB308E00E501E601E701E301E40147
:100310004D30EC000D206F30EC000D206F30EC0004
:100320000D202130EC000D200A30EC000D2083124E
:100330008C1E9D291A08E800BB20981CA1291812C0
:100340001816E7080319A6290614A7290610E608B7
:100350000319AC290511AD290515E5080319B229C2
:100360000513B32905170C1CCF290C100B308F0077
:10037000DB308E00E7080319C129670A0319C12978
:10038000E703E6080319C829660A0319C829E60322
:10039000E5080319CF29650A0319CF29E503051CD0
:0E03A000DF20A620640097298A110A125C292A
:02400E00343F3D
:00000001FF
